{
  "contractName": "TwitterDapp",
  "abi": [
    {
      "anonymous": false,
      "inputs": [
        {
          "indexed": false,
          "internalType": "address",
          "name": "author",
          "type": "address"
        }
      ],
      "name": "ProfileCreated",
      "type": "event"
    },
    {
      "anonymous": false,
      "inputs": [
        {
          "indexed": false,
          "internalType": "uint256",
          "name": "id",
          "type": "uint256"
        }
      ],
      "name": "TweetComment",
      "type": "event"
    },
    {
      "anonymous": false,
      "inputs": [
        {
          "indexed": false,
          "internalType": "uint256",
          "name": "id",
          "type": "uint256"
        }
      ],
      "name": "TweetLikeDislike",
      "type": "event"
    },
    {
      "anonymous": false,
      "inputs": [
        {
          "indexed": false,
          "internalType": "uint256",
          "name": "id",
          "type": "uint256"
        }
      ],
      "name": "TweetPosted",
      "type": "event"
    },
    {
      "anonymous": false,
      "inputs": [
        {
          "indexed": false,
          "internalType": "uint256",
          "name": "id",
          "type": "uint256"
        }
      ],
      "name": "TweetToggle",
      "type": "event"
    },
    {
      "anonymous": false,
      "inputs": [
        {
          "indexed": false,
          "internalType": "uint256",
          "name": "id",
          "type": "uint256"
        }
      ],
      "name": "TweetUpdated",
      "type": "event"
    },
    {
      "inputs": [
        {
          "internalType": "uint256",
          "name": "",
          "type": "uint256"
        }
      ],
      "name": "comment",
      "outputs": [
        {
          "internalType": "uint256",
          "name": "id",
          "type": "uint256"
        },
        {
          "internalType": "address",
          "name": "commentedBy",
          "type": "address"
        },
        {
          "internalType": "string",
          "name": "comments",
          "type": "string"
        },
        {
          "internalType": "uint256",
          "name": "datetime",
          "type": "uint256"
        }
      ],
      "stateMutability": "view",
      "type": "function",
      "constant": true
    },
    {
      "inputs": [
        {
          "internalType": "uint256",
          "name": "",
          "type": "uint256"
        }
      ],
      "name": "like",
      "outputs": [
        {
          "internalType": "uint256",
          "name": "id",
          "type": "uint256"
        },
        {
          "internalType": "address",
          "name": "likedBy",
          "type": "address"
        },
        {
          "internalType": "bool",
          "name": "status",
          "type": "bool"
        },
        {
          "internalType": "uint256",
          "name": "datetime",
          "type": "uint256"
        }
      ],
      "stateMutability": "view",
      "type": "function",
      "constant": true
    },
    {
      "inputs": [
        {
          "internalType": "uint256",
          "name": "",
          "type": "uint256"
        }
      ],
      "name": "tweet",
      "outputs": [
        {
          "internalType": "uint256",
          "name": "id",
          "type": "uint256"
        },
        {
          "internalType": "string",
          "name": "hash",
          "type": "string"
        },
        {
          "internalType": "string",
          "name": "description",
          "type": "string"
        },
        {
          "internalType": "uint256",
          "name": "datetime",
          "type": "uint256"
        },
        {
          "internalType": "bool",
          "name": "isActive",
          "type": "bool"
        },
        {
          "internalType": "address payable",
          "name": "author",
          "type": "address"
        }
      ],
      "stateMutability": "view",
      "type": "function",
      "constant": true
    },
    {
      "inputs": [],
      "name": "twitterId",
      "outputs": [
        {
          "internalType": "uint256",
          "name": "",
          "type": "uint256"
        }
      ],
      "stateMutability": "view",
      "type": "function",
      "constant": true
    },
    {
      "inputs": [
        {
          "internalType": "uint256",
          "name": "",
          "type": "uint256"
        }
      ],
      "name": "userInfo",
      "outputs": [
        {
          "internalType": "string",
          "name": "name",
          "type": "string"
        },
        {
          "internalType": "string",
          "name": "location",
          "type": "string"
        },
        {
          "internalType": "uint256",
          "name": "date",
          "type": "uint256"
        },
        {
          "internalType": "address",
          "name": "author",
          "type": "address"
        }
      ],
      "stateMutability": "view",
      "type": "function",
      "constant": true
    },
    {
      "inputs": [
        {
          "internalType": "uint256",
          "name": "",
          "type": "uint256"
        }
      ],
      "name": "users",
      "outputs": [
        {
          "internalType": "address",
          "name": "",
          "type": "address"
        }
      ],
      "stateMutability": "view",
      "type": "function",
      "constant": true
    },
    {
      "inputs": [
        {
          "internalType": "string",
          "name": "_name",
          "type": "string"
        },
        {
          "internalType": "string",
          "name": "_location",
          "type": "string"
        }
      ],
      "name": "createUser",
      "outputs": [],
      "stateMutability": "nonpayable",
      "type": "function"
    },
    {
      "inputs": [
        {
          "components": [
            {
              "internalType": "uint256",
              "name": "id",
              "type": "uint256"
            },
            {
              "internalType": "string",
              "name": "hash",
              "type": "string"
            },
            {
              "internalType": "string",
              "name": "description",
              "type": "string"
            },
            {
              "internalType": "uint256",
              "name": "datetime",
              "type": "uint256"
            },
            {
              "internalType": "bool",
              "name": "isActive",
              "type": "bool"
            },
            {
              "internalType": "address payable",
              "name": "author",
              "type": "address"
            }
          ],
          "internalType": "struct TwitterDapp.Twitter",
          "name": "_twitter",
          "type": "tuple"
        }
      ],
      "name": "postTweet",
      "outputs": [],
      "stateMutability": "nonpayable",
      "type": "function"
    },
    {
      "inputs": [
        {
          "internalType": "uint256",
          "name": "_index",
          "type": "uint256"
        },
        {
          "components": [
            {
              "internalType": "uint256",
              "name": "id",
              "type": "uint256"
            },
            {
              "internalType": "string",
              "name": "hash",
              "type": "string"
            },
            {
              "internalType": "string",
              "name": "description",
              "type": "string"
            },
            {
              "internalType": "uint256",
              "name": "datetime",
              "type": "uint256"
            },
            {
              "internalType": "bool",
              "name": "isActive",
              "type": "bool"
            },
            {
              "internalType": "address payable",
              "name": "author",
              "type": "address"
            }
          ],
          "internalType": "struct TwitterDapp.Twitter",
          "name": "_twitter",
          "type": "tuple"
        }
      ],
      "name": "updateTweet",
      "outputs": [],
      "stateMutability": "nonpayable",
      "type": "function"
    },
    {
      "inputs": [
        {
          "internalType": "uint256",
          "name": "_index",
          "type": "uint256"
        }
      ],
      "name": "toggleTweet",
      "outputs": [],
      "stateMutability": "nonpayable",
      "type": "function"
    },
    {
      "inputs": [
        {
          "internalType": "uint256",
          "name": "_index",
          "type": "uint256"
        }
      ],
      "name": "likeTweet",
      "outputs": [],
      "stateMutability": "nonpayable",
      "type": "function"
    },
    {
      "inputs": [
        {
          "internalType": "uint256",
          "name": "_index",
          "type": "uint256"
        }
      ],
      "name": "toggleLike",
      "outputs": [],
      "stateMutability": "nonpayable",
      "type": "function"
    },
    {
      "inputs": [],
      "name": "getTweets",
      "outputs": [
        {
          "components": [
            {
              "internalType": "uint256",
              "name": "id",
              "type": "uint256"
            },
            {
              "internalType": "string",
              "name": "hash",
              "type": "string"
            },
            {
              "internalType": "string",
              "name": "description",
              "type": "string"
            },
            {
              "internalType": "uint256",
              "name": "datetime",
              "type": "uint256"
            },
            {
              "internalType": "bool",
              "name": "isActive",
              "type": "bool"
            },
            {
              "internalType": "address payable",
              "name": "author",
              "type": "address"
            }
          ],
          "internalType": "struct TwitterDapp.Twitter[]",
          "name": "",
          "type": "tuple[]"
        }
      ],
      "stateMutability": "view",
      "type": "function",
      "constant": true
    },
    {
      "inputs": [],
      "name": "getLikes",
      "outputs": [
        {
          "components": [
            {
              "internalType": "uint256",
              "name": "id",
              "type": "uint256"
            },
            {
              "internalType": "address",
              "name": "likedBy",
              "type": "address"
            },
            {
              "internalType": "bool",
              "name": "status",
              "type": "bool"
            },
            {
              "internalType": "uint256",
              "name": "datetime",
              "type": "uint256"
            }
          ],
          "internalType": "struct TwitterDapp.Like[]",
          "name": "",
          "type": "tuple[]"
        }
      ],
      "stateMutability": "view",
      "type": "function",
      "constant": true
    },
    {
      "inputs": [],
      "name": "getComment",
      "outputs": [
        {
          "components": [
            {
              "internalType": "uint256",
              "name": "id",
              "type": "uint256"
            },
            {
              "internalType": "address",
              "name": "commentedBy",
              "type": "address"
            },
            {
              "internalType": "string",
              "name": "comments",
              "type": "string"
            },
            {
              "internalType": "uint256",
              "name": "datetime",
              "type": "uint256"
            }
          ],
          "internalType": "struct TwitterDapp.Comment[]",
          "name": "",
          "type": "tuple[]"
        }
      ],
      "stateMutability": "view",
      "type": "function",
      "constant": true
    },
    {
      "inputs": [
        {
          "internalType": "uint256",
          "name": "_index",
          "type": "uint256"
        },
        {
          "internalType": "string",
          "name": "_comments",
          "type": "string"
        }
      ],
      "name": "commentOnTweet",
      "outputs": [],
      "stateMutability": "nonpayable",
      "type": "function"
    }
  ],
  "bytecode": "0x6080604052600160005534801561001557600080fd5b50611808806100256000396000f3fe608060405234801561001057600080fd5b50600436106100ff5760003560e01c80639b49c24811610097578063ede664ac11610066578063ede664ac14610277578063f753423a1461028a578063fc86741f146102af578063ffec8f18146102c457600080fd5b80639b49c248146101f7578063cc7730441461020a578063d6a639b11461021f578063e82935da1461023657600080fd5b806358fe03bc116100d357806358fe03bc146101a95780635ffc6ceb146101bc57806362a1c583146101cf57806387b162b5146101e457600080fd5b8062981cc914610104578063365b98b21461013057806351d70bc41461017157806354398d1814610194575b600080fd5b610117610112366004611173565b6102d7565b60405161012794939291906111d9565b60405180910390f35b61015961013e366004611173565b6005602052600090815260409020546001600160a01b031681565b6040516001600160a01b039091168152602001610127565b61018461017f366004611173565b6103a6565b6040516101279493929190611214565b6101a76101a2366004611173565b610500565b005b6101a76101b7366004611327565b6105a0565b6101a76101ca366004611173565b6106c5565b6101d76107dc565b604051610127919061136e565b6101a76101f23660046113dd565b61086e565b6101a7610205366004611508565b610955565b610212610aa0565b6040516101279190611545565b61022860005481565b604051908152602001610127565b610249610244366004611173565b610bb2565b604080519485526001600160a01b039093166020850152901515918301919091526060820152608001610127565b6101a7610285366004611173565b610bfb565b61029d610298366004611173565b610ca4565b604051610127969594939291906115dc565b6102b7610e09565b604051610127919061162f565b6101a76102d23660046116db565b610fc0565b600381815481106102e757600080fd5b60009182526020909120600490910201805460018201546002830180549294506001600160a01b03909116929161031d90611718565b80601f016020809104026020016040519081016040528092919081815260200182805461034990611718565b80156103965780601f1061036b57610100808354040283529160200191610396565b820191906000526020600020905b81548152906001019060200180831161037957829003601f168201915b5050505050908060030154905084565b600481815481106103b657600080fd5b90600052602060002090600402016000915090508060000180546103d990611718565b80601f016020809104026020016040519081016040528092919081815260200182805461040590611718565b80156104525780601f1061042757610100808354040283529160200191610452565b820191906000526020600020905b81548152906001019060200180831161043557829003601f168201915b50505050509080600101805461046790611718565b80601f016020809104026020016040519081016040528092919081815260200182805461049390611718565b80156104e05780601f106104b5576101008083540402835291602001916104e0565b820191906000526020600020905b8154815290600101906020018083116104c357829003601f168201915b5050505060028301546003909301549192916001600160a01b0316905084565b60006002828154811061051557610515611753565b6000918252602090912060039091020160018101549091506001600160a01b0316331461054157600080fd5b60018101805460ff60a01b198116600160a01b9182900460ff16159091021790554260028201556040518281527fee1a4fc5c910a5fafcac88ff998a5a9c09a7b208340e6d2a10da9bb96e06363d906020015b60405180910390a15050565b336105aa57600080fd5b6040805160808101825283815233602080830191825292820184815242606084015260038054600181018255600091909152835160049091027fc2575a0e9e593c00f959f8c92f12db2869c3395a3b0502d05e2516446f71f85b810191825592517fc2575a0e9e593c00f959f8c92f12db2869c3395a3b0502d05e2516446f71f85c840180546001600160a01b03929092166001600160a01b03199092169190911790559051805193949193610687937fc2575a0e9e593c00f959f8c92f12db2869c3395a3b0502d05e2516446f71f85d019291909101906110da565b506060820151816003015550507f3f208e014724d91dd5ea092ad35a5fb52dfcdd689522fbfff461491b64228be68260405161059491815260200190565b336106cf57600080fd5b604080516080810182528281523360208083019182526001838501818152426060860190815260028054938401815560005294517f405787fa12a823e0f2b7631cc41b3ba8828b3321ca811111fa75cd3aa3bb5ace60039093029283015592517f405787fa12a823e0f2b7631cc41b3ba8828b3321ca811111fa75cd3aa3bb5acf8201805494516001600160a01b039092166001600160a81b031990951694909417600160a01b911515919091021790925591517f405787fa12a823e0f2b7631cc41b3ba8828b3321ca811111fa75cd3aa3bb5ad09091015590518281527fee1a4fc5c910a5fafcac88ff998a5a9c09a7b208340e6d2a10da9bb96e06363d91015b60405180910390a150565b60606002805480602002602001604051908101604052809291908181526020016000905b828210156108655760008481526020908190206040805160808101825260038602909201805483526001808201546001600160a01b03811685870152600160a01b900460ff161515928401929092526002015460608301529083529092019101610800565b50505050905090565b6040805160808101825283815260208082018490524292820192909252336060820152600480546001810182556000829052825180519394919092027f8a35acfbc15ff81a39ae7d344fd709f28e8600b4aa8c65c6b64bfe7fe36bd19b01926108da92849201906110da565b5060208281015180516108f392600185019201906110da565b506040828101516002830155606090920151600390910180546001600160a01b0319166001600160a01b03909216919091179055513381527ff10ec97e920cde75887622583772c637595a40b1f7777c18e51ea36cd127475c90602001610594565b600180548082018255600091909152815160059091027fb10e2d527612073b26eecdfd717e6a320cf44b4afac2b0732d9fcbe2b7fa0cf6810191825560208084015180518594936109cc937fb10e2d527612073b26eecdfd717e6a320cf44b4afac2b0732d9fcbe2b7fa0cf79091019201906110da565b50604082015180516109e89160028401916020909101906110da565b506060820151600382015560808201516004909101805460a0909301516001600160a01b031661010002610100600160a81b0319921515929092166001600160a81b03199093169290921717905560008054815260056020526040812080546001600160a01b031916331790558054600191908190610a68908490611769565b90915550506000546040519081527fb4db9e7c1e7e398077609fb3acb8e94b270d2382b11f4aa4dde1f331be5e2ecc906020016107d1565b60606003805480602002602001604051908101604052809291908181526020016000905b8282101561086557600084815260209081902060408051608081018252600486029092018054835260018101546001600160a01b03169383019390935260028301805492939291840191610b1790611718565b80601f0160208091040260200160405190810160405280929190818152602001828054610b4390611718565b8015610b905780601f10610b6557610100808354040283529160200191610b90565b820191906000526020600020905b815481529060010190602001808311610b7357829003601f168201915b5050505050815260200160038201548152505081526020019060010190610ac4565b60028181548110610bc257600080fd5b60009182526020909120600390910201805460018201546002909201549092506001600160a01b03821691600160a01b900460ff169084565b600060018281548110610c1057610c10611753565b60009182526020808320858452600591829052604090932054910290910191506001600160a01b03163314610c605760405162461bcd60e51b8152600401610c579061178f565b60405180910390fd5b60048101805460ff81161560ff199091161790556040518281527f3f3fa4122bc87255d83f2b9c1361953bf2f722271489b049ac9f9418d9b5057690602001610594565b60018181548110610cb457600080fd5b60009182526020909120600590910201805460018201805491935090610cd990611718565b80601f0160208091040260200160405190810160405280929190818152602001828054610d0590611718565b8015610d525780601f10610d2757610100808354040283529160200191610d52565b820191906000526020600020905b815481529060010190602001808311610d3557829003601f168201915b505050505090806002018054610d6790611718565b80601f0160208091040260200160405190810160405280929190818152602001828054610d9390611718565b8015610de05780601f10610db557610100808354040283529160200191610de0565b820191906000526020600020905b815481529060010190602001808311610dc357829003601f168201915b50505050600383015460049093015491929160ff8116915061010090046001600160a01b031686565b60606001805480602002602001604051908101604052809291908181526020016000905b8282101561086557838290600052602060002090600502016040518060c001604052908160008201548152602001600182018054610e6a90611718565b80601f0160208091040260200160405190810160405280929190818152602001828054610e9690611718565b8015610ee35780601f10610eb857610100808354040283529160200191610ee3565b820191906000526020600020905b815481529060010190602001808311610ec657829003601f168201915b50505050508152602001600282018054610efc90611718565b80601f0160208091040260200160405190810160405280929190818152602001828054610f2890611718565b8015610f755780601f10610f4a57610100808354040283529160200191610f75565b820191906000526020600020905b815481529060010190602001808311610f5857829003601f168201915b5050509183525050600382015460208083019190915260049092015460ff81161515604083015261010090046001600160a01b03166060909101529082526001929092019101610e2d565b6000828152600560205260409020546001600160a01b03163314610ff65760405162461bcd60e51b8152600401610c579061178f565b806001838154811061100a5761100a611753565b906000526020600020906005020160008201518160000155602082015181600101908051906020019061103e9291906110da565b506040820151805161105a9160028401916020909101906110da565b506060820151600382015560808201516004909101805460a0909301516001600160a01b031661010002610100600160a81b0319921515929092166001600160a81b0319909316929092171790556040517f1184d7b910825b903d666ca68b0528621b28e4f9ec9b1003eeccd06ac4e02cce906105949084815260200190565b8280546110e690611718565b90600052602060002090601f016020900481019282611108576000855561114e565b82601f1061112157805160ff191683800117855561114e565b8280016001018555821561114e579182015b8281111561114e578251825591602001919060010190611133565b5061115a92915061115e565b5090565b5b8082111561115a576000815560010161115f565b60006020828403121561118557600080fd5b5035919050565b6000815180845260005b818110156111b257602081850181015186830182015201611196565b818111156111c4576000602083870101525b50601f01601f19169290920160200192915050565b8481526001600160a01b03841660208201526080604082018190526000906112039083018561118c565b905082606083015295945050505050565b608081526000611227608083018761118c565b8281036020840152611239818761118c565b604084019590955250506001600160a01b039190911660609091015292915050565b634e487b7160e01b600052604160045260246000fd5b60405160c0810167ffffffffffffffff811182821017156112945761129461125b565b60405290565b600082601f8301126112ab57600080fd5b813567ffffffffffffffff808211156112c6576112c661125b565b604051601f8301601f19908116603f011681019082821181831017156112ee576112ee61125b565b8160405283815286602085880101111561130757600080fd5b836020870160208301376000602085830101528094505050505092915050565b6000806040838503121561133a57600080fd5b82359150602083013567ffffffffffffffff81111561135857600080fd5b6113648582860161129a565b9150509250929050565b602080825282518282018190526000919060409081850190868401855b828110156113d057815180518552868101516001600160a01b03168786015285810151151586860152606090810151908501526080909301929085019060010161138b565b5091979650505050505050565b600080604083850312156113f057600080fd5b823567ffffffffffffffff8082111561140857600080fd5b6114148683870161129a565b9350602085013591508082111561142a57600080fd5b506113648582860161129a565b8035801515811461144757600080fd5b919050565b80356001600160a01b038116811461144757600080fd5b600060c0828403121561147557600080fd5b61147d611271565b905081358152602082013567ffffffffffffffff8082111561149e57600080fd5b6114aa8583860161129a565b602084015260408401359150808211156114c357600080fd5b506114d08482850161129a565b604083015250606082013560608201526114ec60808301611437565b60808201526114fd60a0830161144c565b60a082015292915050565b60006020828403121561151a57600080fd5b813567ffffffffffffffff81111561153157600080fd5b61153d84828501611463565b949350505050565b60006020808301818452808551808352604092508286019150828160051b87010184880160005b838110156115ce57888303603f19018552815180518452878101516001600160a01b031688850152868101516080888601819052906115ad8287018261118c565b6060938401519690930195909552509487019492509086019060010161156c565b509098975050505050505050565b86815260c0602082015260006115f560c083018861118c565b8281036040840152611607818861118c565b6060840196909652505091151560808301526001600160a01b031660a0909101529392505050565b60006020808301818452808551808352604092508286019150828160051b87010184880160005b838110156115ce57603f19898403018552815160c08151855288820151818a8701526116848287018261118c565b915050878201518582038987015261169c828261118c565b6060848101519088015260808085015115159088015260a0938401516001600160a01b0316939096019290925250509386019390860190600101611656565b600080604083850312156116ee57600080fd5b82359150602083013567ffffffffffffffff81111561170c57600080fd5b61136485828601611463565b600181811c9082168061172c57607f821691505b6020821081141561174d57634e487b7160e01b600052602260045260246000fd5b50919050565b634e487b7160e01b600052603260045260246000fd5b6000821982111561178a57634e487b7160e01b600052601160045260246000fd5b500190565b60208082526023908201527f596f7520617265206e6f7420746865206f776e6572206f66207468697320747760408201526219595d60ea1b60608201526080019056fea2646970667358221220ed3eaec455d0f23bb234512fcc55e5ef64e78d96410e425271393a6f3e65f0e564736f6c634300080a0033",
  "immutableReferences": {},
  "source": "// SPDX-License-Identifier:MIT\r\npragma solidity ^0.8.7;\r\n\r\ncontract TwitterDapp {\r\n    uint public twitterId = 1;    \r\n    Twitter[] public tweet; \r\n    Like[] public like; \r\n    Comment[] public comment; \r\n    User[] public userInfo; \r\n    mapping(uint256 => address) public users;\r\n\r\n    struct User{        \r\n        string name; \r\n        string location; \r\n        uint date; \r\n        address author; \r\n    }\r\n\r\n    struct Twitter{\r\n        uint id; \r\n        string hash; \r\n        string description;\r\n        uint datetime; \r\n        bool isActive; \r\n        address payable author; \r\n    }\r\n\r\n    struct Like{\r\n        uint id;\r\n        address likedBy; \r\n        bool status;\r\n        uint datetime;         \r\n    }\r\n\r\n    struct Comment{\r\n        uint id; \r\n        address commentedBy; \r\n        string comments; \r\n        uint datetime; \r\n    }\r\n\r\n    //event\r\n    event TweetPosted(uint id); \r\n    event TweetUpdated(uint id); \r\n    event TweetToggle(uint id); \r\n    event  TweetLikeDislike(uint id);    \r\n    event  TweetComment(uint id);  \r\n    event ProfileCreated(address author);  \r\n\r\n//[0, \"9f86d081884c7d659a2feaa0c55ad015a3bf4f1b2b0b822cd15d6c15b0f00a08\", \"Desc\", 1635790237, true, \"0x5B38Da6a701c568545dCfcB03FcB875f56beddC4\"]    //Create Tweet\r\n    //userInfo\r\n    function createUser(string memory _name, string memory _location) public {\r\n        userInfo.push(User(_name, _location, block.timestamp, msg.sender));    \r\n        emit ProfileCreated(msg.sender);\r\n    }\r\n        \r\n    \r\n    // post tweet\r\n    function postTweet(Twitter memory _twitter) public {\r\n        tweet.push(_twitter); \r\n        users[twitterId] = msg.sender;\r\n        twitterId += 1; \r\n        emit TweetPosted(twitterId);\r\n    }\r\n    //Update Tweet\r\n    function updateTweet(uint256 _index, Twitter memory _twitter) public {\r\n        require(msg.sender == users[_index], \"You are not the owner of this tweet\");        \r\n        tweet[_index] = _twitter;\r\n        emit TweetUpdated(_index); \r\n    }\r\n\r\n    //toggle\r\n     function toggleTweet(uint _index) public {\r\n        Twitter storage _twitter = tweet[_index]; \r\n        require(msg.sender == users[_index], \"You are not the owner of this tweet\");        \r\n        _twitter.isActive = !(_twitter.isActive);     \r\n        emit TweetToggle(_index);\r\n    }\r\n\r\n    //like\r\n    function likeTweet(uint _index) public {\r\n        //Make sure address exists\r\n        require(msg.sender != address(0x0));\r\n        like.push(Like(_index, msg.sender, true, block.timestamp));        \r\n        emit TweetLikeDislike(_index);\r\n    }\r\n    //toggleLike\r\n    function toggleLike(uint _index) public {\r\n        Like storage _like = like[_index]; \r\n        require(msg.sender == _like.likedBy);\r\n        _like.status = !(_like.status);     \r\n        _like.datetime = block.timestamp;\r\n        emit TweetLikeDislike(_index);\r\n    }\r\n    \r\n    function getTweets() public view returns(Twitter[] memory){\r\n        return tweet;\r\n    }\r\n     function getLikes() public view returns(Like[] memory){\r\n        return like;\r\n    }\r\n\r\n    function getComment() public view returns(Comment[] memory){\r\n        return comment;\r\n    }\r\n    function commentOnTweet(uint _index, string memory _comments) public {\r\n        //Make sure address exists\r\n        require(msg.sender != address(0x0));\r\n        comment.push(Comment(_index, msg.sender, _comments , block.timestamp));        \r\n        emit TweetComment(_index);\r\n    }\r\n}",
  "sourcePath": "C:\\Users\\Krishna Shrestha\\Projects\\Blockchain\\twitter-dapp\\src\\contracts\\TwitterDapp.sol",
  "compiler": {
    "name": "solc",
    "version": "0.8.10+commit.fc410830.Emscripten.clang"
  },
  "schemaVersion": "3.4.3",
  "updatedAt": "2021-12-14T08:00:28.562Z",
  "networkType": "ethereum",
  "devdoc": {
    "kind": "dev",
    "methods": {},
    "version": 1
  },
  "userdoc": {
    "kind": "user",
    "methods": {},
    "version": 1
  }
}